{
  "contractName": "TraceabilityGal",
  "abi": [
    {
      "constant": true,
      "inputs": [],
      "name": "countedProducts",
      "outputs": [
        {
          "name": "",
          "type": "uint256"
        }
      ],
      "payable": false,
      "stateMutability": "view",
      "type": "function"
    },
    {
      "constant": true,
      "inputs": [
        {
          "name": "",
          "type": "uint256"
        }
      ],
      "name": "products",
      "outputs": [
        {
          "name": "",
          "type": "uint32"
        }
      ],
      "payable": false,
      "stateMutability": "view",
      "type": "function"
    },
    {
      "inputs": [],
      "payable": false,
      "stateMutability": "nonpayable",
      "type": "constructor"
    },
    {
      "constant": false,
      "inputs": [
        {
          "name": "productId",
          "type": "uint32"
        }
      ],
      "name": "addProduct",
      "outputs": [],
      "payable": false,
      "stateMutability": "nonpayable",
      "type": "function"
    },
    {
      "constant": false,
      "inputs": [
        {
          "name": "productId",
          "type": "uint32"
        },
        {
          "name": "trace",
          "type": "string"
        }
      ],
      "name": "addTraceToProduct",
      "outputs": [],
      "payable": false,
      "stateMutability": "nonpayable",
      "type": "function"
    },
    {
      "constant": true,
      "inputs": [
        {
          "name": "productId",
          "type": "uint32"
        }
      ],
      "name": "getNumberOfProductTraces",
      "outputs": [
        {
          "name": "",
          "type": "uint32"
        }
      ],
      "payable": false,
      "stateMutability": "view",
      "type": "function"
    },
    {
      "constant": true,
      "inputs": [
        {
          "name": "productId",
          "type": "uint32"
        },
        {
          "name": "traceNumber",
          "type": "uint32"
        }
      ],
      "name": "getTraceForProduct",
      "outputs": [
        {
          "name": "",
          "type": "string"
        }
      ],
      "payable": false,
      "stateMutability": "view",
      "type": "function"
    },
    {
      "constant": true,
      "inputs": [
        {
          "name": "productId",
          "type": "uint32"
        }
      ],
      "name": "productExist",
      "outputs": [
        {
          "name": "",
          "type": "bool"
        }
      ],
      "payable": false,
      "stateMutability": "view",
      "type": "function"
    }
  ],
  "bytecode": "0x608060405234801561001057600080fd5b5060008081905550610838806100276000396000f300608060405260043610610083576000357c0100000000000000000000000000000000000000000000000000000000900463ffffffff1680630afa89a0146100885780631be176f0146100db578063211232b2146101065780637acc0b2014610139578063cfdadc2614610186578063eef8f9bc146101d1578063fd9109321461024a575b600080fd5b34801561009457600080fd5b506100b9600480360381019080803563ffffffff169060200190929190505050610306565b604051808263ffffffff1663ffffffff16815260200191505060405180910390f35b3480156100e757600080fd5b506100f0610362565b6040518082815260200191505060405180910390f35b34801561011257600080fd5b50610137600480360381019080803563ffffffff169060200190929190505050610368565b005b34801561014557600080fd5b5061016460048036038101908080359060200190929190505050610437565b604051808263ffffffff1663ffffffff16815260200191505060405180910390f35b34801561019257600080fd5b506101b7600480360381019080803563ffffffff169060200190929190505050610470565b604051808215151515815260200191505060405180910390f35b3480156101dd57600080fd5b50610248600480360381019080803563ffffffff169060200190929190803590602001908201803590602001908080601f01602080910402602001604051908101604052809392919081815260200183838082843782019150505050505091929192905050506104eb565b005b34801561025657600080fd5b5061028b600480360381019080803563ffffffff169060200190929190803563ffffffff1690602001909291905050506105cf565b6040518080602001828103825283818151815260200191508051906020019080838360005b838110156102cb5780820151818401526020810190506102b0565b50505050905090810190601f1680156102f85780820380516001836020036101000a031916815260200191505b509250505060405180910390f35b6000808263ffffffff161415151561031a57fe5b61032382610470565b151561032b57fe5b600360008363ffffffff1663ffffffff16815260200190815260200160002060009054906101000a900463ffffffff169050919050565b60005481565b60008163ffffffff161415151561037e57600080fd5b61038781610470565b15151561039357600080fd5b600181908060018154018082558091505090600182039060005260206000209060089182820401919006600402909192909190916101000a81548163ffffffff021916908363ffffffff160217905550506000600360008363ffffffff1663ffffffff16815260200190815260200160002060006101000a81548163ffffffff021916908363ffffffff160217905550600080815480929190600101919050555050565b60018181548110151561044657fe5b9060005260206000209060089182820401919006600402915054906101000a900463ffffffff1681565b600080600090505b6000548110156104e0578263ffffffff1660018281548110151561049857fe5b90600052602060002090600891828204019190066004029054906101000a900463ffffffff1663ffffffff1614156104d357600191506104e5565b8080600101915050610478565b600091505b50919050565b6104f482610470565b15156104ff57600080fd5b600260008363ffffffff1663ffffffff168152602001908152602001600020819080600181540180825580915050906001820390600052602060002001600090919290919091509080519060200190610559929190610767565b50506001600360008463ffffffff1663ffffffff16815260200190815260200160002060009054906101000a900463ffffffff1601600360008463ffffffff1663ffffffff16815260200190815260200160002060006101000a81548163ffffffff021916908363ffffffff1602179055505050565b60608060008463ffffffff16141515156105e557fe5b6105ee84610470565b15156105f657fe5b600360008563ffffffff1663ffffffff16815260200190815260200160002060009054906101000a900463ffffffff1663ffffffff168363ffffffff1610151561063f57600080fd5b600260008563ffffffff1663ffffffff168152602001908152602001600020805480602002602001604051908101604052809291908181526020016000905b8282101561073a578382906000526020600020018054600181600116156101000203166002900480601f0160208091040260200160405190810160405280929190818152602001828054600181600116156101000203166002900480156107265780601f106106fb57610100808354040283529160200191610726565b820191906000526020600020905b81548152906001019060200180831161070957829003601f168201915b50505050508152602001906001019061067e565b505050509050808363ffffffff1681518110151561075457fe5b9060200190602002015191505092915050565b828054600181600116156101000203166002900490600052602060002090601f016020900481019282601f106107a857805160ff19168380011785556107d6565b828001600101855582156107d6579182015b828111156107d55782518255916020019190600101906107ba565b5b5090506107e391906107e7565b5090565b61080991905b808211156108055760008160009055506001016107ed565b5090565b905600a165627a7a723058202d4a4b651cd6e3a3051a7534b26f87edfe2b9219a09723488616fc2cdebb80400029",
  "source": "pragma solidity ^0.4.24;\r\n\r\ncontract TraceabilityGal {\r\n    \r\n    uint public countedProducts;\r\n    uint32[] public products;\r\n    mapping(uint32 => string[]) private traces;\r\n    mapping(uint32 => uint32) private numberOfTracesStored;\r\n    \r\n    \r\n    constructor() public {\r\n        countedProducts = 0;\r\n    }\r\n    \r\n    \r\n    function addProduct(uint32 productId) public {\r\n        require(productId != 0);\r\n        require(!productExist(productId));\r\n        products.push(productId);\r\n        numberOfTracesStored[productId] = 0;\r\n        countedProducts++;\r\n    }\r\n    \r\n    \r\n    function addTraceToProduct(uint32 productId, string trace) public {\r\n        require(productExist(productId));\r\n        traces[productId].push(trace);\r\n        numberOfTracesStored[productId] = numberOfTracesStored[productId] + 1;\r\n    }\r\n    \r\n    \r\n    function getNumberOfProductTraces(uint32 productId) public view returns(uint32) {\r\n        assert(productId != 0);\r\n        assert(productExist(productId));\r\n        return numberOfTracesStored[productId];\r\n    }\r\n    \r\n    \r\n    function getTraceForProduct(uint32 productId, uint32 traceNumber) public view returns(string){\r\n        assert(productId != 0);\r\n        assert(productExist(productId));\r\n        require(traceNumber < numberOfTracesStored[productId]);\r\n        \r\n        string[] memory tracesForProduct = traces[productId];\r\n        return tracesForProduct[traceNumber];\r\n    }\r\n\r\n    \r\n    function productExist(uint32 productId) public view returns(bool){\r\n        for(uint i=0; i<countedProducts; i++){\r\n            if(products[i] == productId){\r\n                return true;\r\n            }\r\n        }\r\n        return false;\r\n    }\r\n    \r\n}",
  "sourcePath": "C:\\Users\\Miguel\\Desktop\\Proyectos\\cibtc-blochckaingal-workshop\\traceability_example\\contracts\\TraceabilityGal.sol",
  "compiler": {
    "name": "solc",
    "version": "0.4.24+commit.e67f0147.Emscripten.clang"
  },
  "schemaVersion": "2.0.1",
  "updatedAt": "2018-12-09T12:43:33.275Z"
}